{
  "contractName": "InvoiceLedger",
  "abi": [
    {
      "inputs": [],
      "name": "c",
      "outputs": [
        {
          "internalType": "uint256",
          "name": "",
          "type": "uint256"
        }
      ],
      "stateMutability": "view",
      "type": "function",
      "constant": true
    },
    {
      "inputs": [],
      "name": "invoiceCount",
      "outputs": [
        {
          "internalType": "uint256",
          "name": "",
          "type": "uint256"
        }
      ],
      "stateMutability": "view",
      "type": "function",
      "constant": true
    },
    {
      "inputs": [
        {
          "internalType": "uint256",
          "name": "_buyerPan",
          "type": "uint256"
        },
        {
          "internalType": "uint256",
          "name": "_sellerPan",
          "type": "uint256"
        },
        {
          "internalType": "uint256",
          "name": "_invoiceAmount",
          "type": "uint256"
        },
        {
          "internalType": "uint256",
          "name": "_invoiceDate",
          "type": "uint256"
        }
      ],
      "name": "createInvoice",
      "outputs": [],
      "stateMutability": "nonpayable",
      "type": "function"
    },
    {
      "inputs": [
        {
          "internalType": "uint256",
          "name": "_invoiceId",
          "type": "uint256"
        }
      ],
      "name": "setInvoicePayStatus",
      "outputs": [],
      "stateMutability": "nonpayable",
      "type": "function"
    },
    {
      "inputs": [
        {
          "internalType": "uint256",
          "name": "_invoiceId",
          "type": "uint256"
        }
      ],
      "name": "getInvoiceById",
      "outputs": [
        {
          "internalType": "uint256",
          "name": "",
          "type": "uint256"
        },
        {
          "internalType": "uint256",
          "name": "",
          "type": "uint256"
        },
        {
          "internalType": "uint256",
          "name": "",
          "type": "uint256"
        },
        {
          "internalType": "uint256",
          "name": "",
          "type": "uint256"
        },
        {
          "internalType": "uint256",
          "name": "",
          "type": "uint256"
        },
        {
          "internalType": "bool",
          "name": "",
          "type": "bool"
        }
      ],
      "stateMutability": "view",
      "type": "function",
      "constant": true
    },
    {
      "inputs": [
        {
          "internalType": "uint256",
          "name": "_buyerPan",
          "type": "uint256"
        }
      ],
      "name": "getInvoiceByBuyerPan",
      "outputs": [
        {
          "internalType": "uint256[]",
          "name": "",
          "type": "uint256[]"
        }
      ],
      "stateMutability": "view",
      "type": "function",
      "constant": true
    }
  ],
  "bytecode": "0x6080604052605960005534801561001557600080fd5b50610715806100256000396000f3fe608060405234801561001057600080fd5b50600436106100625760003560e01c80630f594031146100675780631346f0c41461009c5780633b953a89146100ba578063c3da42b8146100d6578063e996ad52146100f4578063f63f640814610110575b600080fd5b610081600480360381019061007c91906103f0565b610140565b60405161009396959493929190610447565b60405180910390f35b6100a46101f5565b6040516100b191906104a8565b60405180910390f35b6100d460048036038101906100cf91906103f0565b6101fb565b005b6100de61022c565b6040516100eb91906104a8565b60405180910390f35b61010e600480360381019061010991906104c3565b610232565b005b61012a600480360381019061012591906103f0565b6102ec565b60405161013791906105e8565b60405180910390f35b60008060008060008060016000888152602001908152602001600020600001546001600089815260200190815260200160002060010154600160008a815260200190815260200160002060020154600160008b815260200190815260200160002060030154600160008c815260200190815260200160002060040154600160008d815260200190815260200160002060050160009054906101000a900460ff1695509550955095509550955091939550919395565b60025481565b600180600083815260200190815260200160002060050160006101000a81548160ff02191690831515021790555050565b60005481565b6040518060c00160405280600254815260200185815260200184815260200183815260200182815260200160001515815250600160006002548152602001908152602001600020600082015181600001556020820151816001015560408201518160020155606082015181600301556080820151816004015560a08201518160050160006101000a81548160ff021916908315150217905550905050600260008154809291906102e190610639565b919050555050505050565b6060600060025467ffffffffffffffff81111561030c5761030b610681565b5b60405190808252806020026020018201604052801561033a5781602001602082028036833780820191505090505b5090506000805b6002548110156103aa5784600160008381526020019081526020016000206001015403610397578083838151811061037c5761037b6106b0565b5b602002602001018181525050818061039390610639565b9250505b80806103a290610639565b915050610341565b508192505050919050565b600080fd5b6000819050919050565b6103cd816103ba565b81146103d857600080fd5b50565b6000813590506103ea816103c4565b92915050565b600060208284031215610406576104056103b5565b5b6000610414848285016103db565b91505092915050565b610426816103ba565b82525050565b60008115159050919050565b6104418161042c565b82525050565b600060c08201905061045c600083018961041d565b610469602083018861041d565b610476604083018761041d565b610483606083018661041d565b610490608083018561041d565b61049d60a0830184610438565b979650505050505050565b60006020820190506104bd600083018461041d565b92915050565b600080600080608085870312156104dd576104dc6103b5565b5b60006104eb878288016103db565b94505060206104fc878288016103db565b935050604061050d878288016103db565b925050606061051e878288016103db565b91505092959194509250565b600081519050919050565b600082825260208201905092915050565b6000819050602082019050919050565b61055f816103ba565b82525050565b60006105718383610556565b60208301905092915050565b6000602082019050919050565b60006105958261052a565b61059f8185610535565b93506105aa83610546565b8060005b838110156105db5781516105c28882610565565b97506105cd8361057d565b9250506001810190506105ae565b5085935050505092915050565b60006020820190508181036000830152610602818461058a565b905092915050565b7f4e487b7100000000000000000000000000000000000000000000000000000000600052601160045260246000fd5b6000610644826103ba565b91507fffffffffffffffffffffffffffffffffffffffffffffffffffffffffffffffff82036106765761067561060a565b5b600182019050919050565b7f4e487b7100000000000000000000000000000000000000000000000000000000600052604160045260246000fd5b7f4e487b7100000000000000000000000000000000000000000000000000000000600052603260045260246000fdfea2646970667358221220ca150fefa91bfcc73e61b6100c1e4c39a27e09e3ec9f9fe22455df1f7719818d64736f6c63430008110033",
  "immutableReferences": {},
  "source": "//SPDX-License-Identifier: ULICENSED\r\n\r\npragma solidity ^0.8.0;\r\n\r\ncontract InvoiceLedger{\r\n\r\n    uint public c = 89;\r\n    struct InvoiceStorage{\r\n        uint invoiceId;\r\n        uint BuyerPan;\r\n        uint SellerPan;\r\n        uint InvoiceAmount;\r\n        uint InvoiceDate;\r\n        bool PayStatus;\r\n        \r\n    }\r\n    mapping(uint => InvoiceStorage ) invoices;\r\n    uint public invoiceCount;\r\n    \r\n\r\n    function createInvoice(uint _buyerPan, uint _sellerPan, uint _invoiceAmount, uint _invoiceDate) public {\r\n        invoices[invoiceCount] = InvoiceStorage(invoiceCount, _buyerPan, _sellerPan, _invoiceAmount, _invoiceDate, false);\r\n        invoiceCount++;\r\n    }\r\n    function setInvoicePayStatus(uint _invoiceId) public{\r\n        invoices[_invoiceId].PayStatus = true;\r\n    }\r\n\r\n    function getInvoiceById(uint _invoiceId) public view returns(uint, uint, uint, uint, uint, bool){\r\n        return (invoices[_invoiceId].invoiceId, invoices[_invoiceId].BuyerPan, invoices[_invoiceId].SellerPan, invoices[_invoiceId].InvoiceAmount, invoices[_invoiceId].InvoiceDate, invoices[_invoiceId].PayStatus);\r\n    }\r\n\r\n    function getInvoiceByBuyerPan(uint _buyerPan) public view returns(uint[] memory){\r\n        uint[] memory result = new uint[](invoiceCount);\r\n        uint resultIndex = 0;\r\n        for(uint i =0; i<invoiceCount; i++){\r\n            if(invoices[i].BuyerPan == _buyerPan){\r\n                result[resultIndex] = i;\r\n                resultIndex++;\r\n            }\r\n        }return result;\r\n    }\r\n\r\n\r\n    }",
  "sourcePath": "C:\\Users\\AYUSH\\ggg\\try_11\\contracts\\InvoiceLedger.sol",
  "compiler": {
    "name": "solc",
    "version": "0.8.17+commit.8df45f5f.Emscripten.clang"
  },
  "schemaVersion": "3.4.11",
  "updatedAt": "2022-12-25T06:33:06.665Z",
  "networkType": "ethereum",
  "devdoc": {
    "kind": "dev",
    "methods": {},
    "version": 1
  },
  "userdoc": {
    "kind": "user",
    "methods": {},
    "version": 1
  }
}